{
  "_format": "hh-sol-artifact-1",
  "contractName": "EarnAllianceBadge",
  "sourceName": "contracts/EarnAllianceBadgeV1.sol",
  "abi": [
    {
      "inputs": [],
      "stateMutability": "nonpayable",
      "type": "constructor"
    },
    {
      "anonymous": false,
      "inputs": [
        {
          "indexed": false,
          "internalType": "address",
          "name": "previousAdmin",
          "type": "address"
        },
        {
          "indexed": false,
          "internalType": "address",
          "name": "newAdmin",
          "type": "address"
        }
      ],
      "name": "AdminChanged",
      "type": "event"
    },
    {
      "anonymous": false,
      "inputs": [
        {
          "indexed": true,
          "internalType": "address",
          "name": "account",
          "type": "address"
        },
        {
          "indexed": true,
          "internalType": "address",
          "name": "operator",
          "type": "address"
        },
        {
          "indexed": false,
          "internalType": "bool",
          "name": "approved",
          "type": "bool"
        }
      ],
      "name": "ApprovalForAll",
      "type": "event"
    },
    {
      "anonymous": false,
      "inputs": [
        {
          "indexed": true,
          "internalType": "address",
          "name": "beacon",
          "type": "address"
        }
      ],
      "name": "BeaconUpgraded",
      "type": "event"
    },
    {
      "anonymous": false,
      "inputs": [
        {
          "indexed": false,
          "internalType": "uint8",
          "name": "version",
          "type": "uint8"
        }
      ],
      "name": "Initialized",
      "type": "event"
    },
    {
      "anonymous": false,
      "inputs": [
        {
          "indexed": true,
          "internalType": "address",
          "name": "previousOwner",
          "type": "address"
        },
        {
          "indexed": true,
          "internalType": "address",
          "name": "newOwner",
          "type": "address"
        }
      ],
      "name": "OwnershipTransferred",
      "type": "event"
    },
    {
      "anonymous": false,
      "inputs": [
        {
          "indexed": false,
          "internalType": "address",
          "name": "account",
          "type": "address"
        }
      ],
      "name": "Paused",
      "type": "event"
    },
    {
      "anonymous": false,
      "inputs": [
        {
          "indexed": true,
          "internalType": "address",
          "name": "operator",
          "type": "address"
        },
        {
          "indexed": true,
          "internalType": "address",
          "name": "from",
          "type": "address"
        },
        {
          "indexed": true,
          "internalType": "address",
          "name": "to",
          "type": "address"
        },
        {
          "indexed": false,
          "internalType": "uint256[]",
          "name": "ids",
          "type": "uint256[]"
        },
        {
          "indexed": false,
          "internalType": "uint256[]",
          "name": "values",
          "type": "uint256[]"
        }
      ],
      "name": "TransferBatch",
      "type": "event"
    },
    {
      "anonymous": false,
      "inputs": [
        {
          "indexed": true,
          "internalType": "address",
          "name": "operator",
          "type": "address"
        },
        {
          "indexed": true,
          "internalType": "address",
          "name": "from",
          "type": "address"
        },
        {
          "indexed": true,
          "internalType": "address",
          "name": "to",
          "type": "address"
        },
        {
          "indexed": false,
          "internalType": "uint256",
          "name": "id",
          "type": "uint256"
        },
        {
          "indexed": false,
          "internalType": "uint256",
          "name": "value",
          "type": "uint256"
        }
      ],
      "name": "TransferSingle",
      "type": "event"
    },
    {
      "anonymous": false,
      "inputs": [
        {
          "indexed": false,
          "internalType": "string",
          "name": "value",
          "type": "string"
        },
        {
          "indexed": true,
          "internalType": "uint256",
          "name": "id",
          "type": "uint256"
        }
      ],
      "name": "URI",
      "type": "event"
    },
    {
      "anonymous": false,
      "inputs": [
        {
          "indexed": false,
          "internalType": "address",
          "name": "account",
          "type": "address"
        }
      ],
      "name": "Unpaused",
      "type": "event"
    },
    {
      "anonymous": false,
      "inputs": [
        {
          "indexed": true,
          "internalType": "address",
          "name": "implementation",
          "type": "address"
        }
      ],
      "name": "Upgraded",
      "type": "event"
    },
    {
      "inputs": [
        {
          "internalType": "address",
          "name": "from",
          "type": "address"
        },
        {
          "internalType": "uint256",
          "name": "id",
          "type": "uint256"
        },
        {
          "internalType": "uint256",
          "name": "amount",
          "type": "uint256"
        }
      ],
      "name": "badgeBurn",
      "outputs": [],
      "stateMutability": "nonpayable",
      "type": "function"
    },
    {
      "inputs": [
        {
          "components": [
            {
              "internalType": "uint256",
              "name": "tokenId",
              "type": "uint256"
            },
            {
              "internalType": "uint256",
              "name": "amount",
              "type": "uint256"
            },
            {
              "internalType": "address",
              "name": "toAddress",
              "type": "address"
            }
          ],
          "internalType": "struct BadgeMintRequest",
          "name": "input",
          "type": "tuple"
        },
        {
          "internalType": "bytes32",
          "name": "r",
          "type": "bytes32"
        },
        {
          "internalType": "bytes32",
          "name": "s",
          "type": "bytes32"
        },
        {
          "internalType": "uint8",
          "name": "v",
          "type": "uint8"
        }
      ],
      "name": "badgeMint",
      "outputs": [],
      "stateMutability": "nonpayable",
      "type": "function"
    },
    {
      "inputs": [
        {
          "internalType": "address",
          "name": "account",
          "type": "address"
        },
        {
          "internalType": "uint256",
          "name": "id",
          "type": "uint256"
        }
      ],
      "name": "balanceOf",
      "outputs": [
        {
          "internalType": "uint256",
          "name": "",
          "type": "uint256"
        }
      ],
      "stateMutability": "view",
      "type": "function"
    },
    {
      "inputs": [
        {
          "internalType": "address[]",
          "name": "accounts",
          "type": "address[]"
        },
        {
          "internalType": "uint256[]",
          "name": "ids",
          "type": "uint256[]"
        }
      ],
      "name": "balanceOfBatch",
      "outputs": [
        {
          "internalType": "uint256[]",
          "name": "",
          "type": "uint256[]"
        }
      ],
      "stateMutability": "view",
      "type": "function"
    },
    {
      "inputs": [
        {
          "internalType": "uint256",
          "name": "id",
          "type": "uint256"
        }
      ],
      "name": "exists",
      "outputs": [
        {
          "internalType": "bool",
          "name": "",
          "type": "bool"
        }
      ],
      "stateMutability": "view",
      "type": "function"
    },
    {
      "inputs": [
        {
          "internalType": "address",
          "name": "_signer",
          "type": "address"
        },
        {
          "internalType": "string",
          "name": "name",
          "type": "string"
        },
        {
          "internalType": "string",
          "name": "version",
          "type": "string"
        }
      ],
      "name": "initialize",
      "outputs": [],
      "stateMutability": "nonpayable",
      "type": "function"
    },
    {
      "inputs": [
        {
          "internalType": "address",
          "name": "account",
          "type": "address"
        },
        {
          "internalType": "address",
          "name": "operator",
          "type": "address"
        }
      ],
      "name": "isApprovedForAll",
      "outputs": [
        {
          "internalType": "bool",
          "name": "",
          "type": "bool"
        }
      ],
      "stateMutability": "view",
      "type": "function"
    },
    {
      "inputs": [
        {
          "internalType": "uint256",
          "name": "",
          "type": "uint256"
        }
      ],
      "name": "maxSupply",
      "outputs": [
        {
          "internalType": "uint256",
          "name": "",
          "type": "uint256"
        }
      ],
      "stateMutability": "view",
      "type": "function"
    },
    {
      "inputs": [],
      "name": "owner",
      "outputs": [
        {
          "internalType": "address",
          "name": "",
          "type": "address"
        }
      ],
      "stateMutability": "view",
      "type": "function"
    },
    {
      "inputs": [],
      "name": "pause",
      "outputs": [],
      "stateMutability": "nonpayable",
      "type": "function"
    },
    {
      "inputs": [],
      "name": "paused",
      "outputs": [
        {
          "internalType": "bool",
          "name": "",
          "type": "bool"
        }
      ],
      "stateMutability": "view",
      "type": "function"
    },
    {
      "inputs": [],
      "name": "proxiableUUID",
      "outputs": [
        {
          "internalType": "bytes32",
          "name": "",
          "type": "bytes32"
        }
      ],
      "stateMutability": "view",
      "type": "function"
    },
    {
      "inputs": [],
      "name": "renounceOwnership",
      "outputs": [],
      "stateMutability": "nonpayable",
      "type": "function"
    },
    {
      "inputs": [
        {
          "internalType": "address",
          "name": "from",
          "type": "address"
        },
        {
          "internalType": "address",
          "name": "to",
          "type": "address"
        },
        {
          "internalType": "uint256[]",
          "name": "ids",
          "type": "uint256[]"
        },
        {
          "internalType": "uint256[]",
          "name": "amounts",
          "type": "uint256[]"
        },
        {
          "internalType": "bytes",
          "name": "data",
          "type": "bytes"
        }
      ],
      "name": "safeBatchTransferFrom",
      "outputs": [],
      "stateMutability": "nonpayable",
      "type": "function"
    },
    {
      "inputs": [
        {
          "internalType": "address",
          "name": "from",
          "type": "address"
        },
        {
          "internalType": "address",
          "name": "to",
          "type": "address"
        },
        {
          "internalType": "uint256",
          "name": "id",
          "type": "uint256"
        },
        {
          "internalType": "uint256",
          "name": "amount",
          "type": "uint256"
        },
        {
          "internalType": "bytes",
          "name": "data",
          "type": "bytes"
        }
      ],
      "name": "safeTransferFrom",
      "outputs": [],
      "stateMutability": "nonpayable",
      "type": "function"
    },
    {
      "inputs": [
        {
          "internalType": "address",
          "name": "operator",
          "type": "address"
        },
        {
          "internalType": "bool",
          "name": "approved",
          "type": "bool"
        }
      ],
      "name": "setApprovalForAll",
      "outputs": [],
      "stateMutability": "nonpayable",
      "type": "function"
    },
    {
      "inputs": [
        {
          "internalType": "uint256",
          "name": "_id",
          "type": "uint256"
        },
        {
          "internalType": "uint256",
          "name": "_supply",
          "type": "uint256"
        }
      ],
      "name": "setMaxSupply",
      "outputs": [],
      "stateMutability": "nonpayable",
      "type": "function"
    },
    {
      "inputs": [
        {
          "internalType": "string",
          "name": "newuri",
          "type": "string"
        }
      ],
      "name": "setURI",
      "outputs": [],
      "stateMutability": "nonpayable",
      "type": "function"
    },
    {
      "inputs": [
        {
          "internalType": "bytes4",
          "name": "interfaceId",
          "type": "bytes4"
        }
      ],
      "name": "supportsInterface",
      "outputs": [
        {
          "internalType": "bool",
          "name": "",
          "type": "bool"
        }
      ],
      "stateMutability": "view",
      "type": "function"
    },
    {
      "inputs": [
        {
          "internalType": "uint256",
          "name": "id",
          "type": "uint256"
        }
      ],
      "name": "totalSupply",
      "outputs": [
        {
          "internalType": "uint256",
          "name": "",
          "type": "uint256"
        }
      ],
      "stateMutability": "view",
      "type": "function"
    },
    {
      "inputs": [
        {
          "internalType": "address",
          "name": "newOwner",
          "type": "address"
        }
      ],
      "name": "transferOwnership",
      "outputs": [],
      "stateMutability": "nonpayable",
      "type": "function"
    },
    {
      "inputs": [],
      "name": "unpause",
      "outputs": [],
      "stateMutability": "nonpayable",
      "type": "function"
    },
    {
      "inputs": [
        {
          "internalType": "address",
          "name": "newImplementation",
          "type": "address"
        }
      ],
      "name": "upgradeTo",
      "outputs": [],
      "stateMutability": "nonpayable",
      "type": "function"
    },
    {
      "inputs": [
        {
          "internalType": "address",
          "name": "newImplementation",
          "type": "address"
        },
        {
          "internalType": "bytes",
          "name": "data",
          "type": "bytes"
        }
      ],
      "name": "upgradeToAndCall",
      "outputs": [],
      "stateMutability": "payable",
      "type": "function"
    },
    {
      "inputs": [
        {
          "internalType": "uint256",
          "name": "",
          "type": "uint256"
        }
      ],
      "name": "uri",
      "outputs": [
        {
          "internalType": "string",
          "name": "",
          "type": "string"
        }
      ],
      "stateMutability": "view",
      "type": "function"
    },
    {
      "inputs": [
        {
          "components": [
            {
              "internalType": "uint256",
              "name": "tokenId",
              "type": "uint256"
            },
            {
              "internalType": "uint256",
              "name": "amount",
              "type": "uint256"
            },
            {
              "internalType": "address",
              "name": "toAddress",
              "type": "address"
            }
          ],
          "internalType": "struct BadgeMintRequest",
          "name": "badgeMintRequest",
          "type": "tuple"
        },
        {
          "internalType": "bytes32",
          "name": "r",
          "type": "bytes32"
        },
        {
          "internalType": "bytes32",
          "name": "s",
          "type": "bytes32"
        },
        {
          "internalType": "uint8",
          "name": "v",
          "type": "uint8"
        }
      ],
      "name": "verify",
      "outputs": [
        {
          "internalType": "bool",
          "name": "",
          "type": "bool"
        }
      ],
      "stateMutability": "view",
      "type": "function"
    }
  ],
  "bytecode": "0x60a06040523073ffffffffffffffffffffffffffffffffffffffff1660809073ffffffffffffffffffffffffffffffffffffffff1660601b8152503480156200004757600080fd5b50620000586200005e60201b60201c565b62000209565b600060019054906101000a900460ff1615620000b1576040517f08c379a0000000000000000000000000000000000000000000000000000000008152600401620000a8906200015d565b60405180910390fd5b60ff801660008054906101000a900460ff1660ff161015620001235760ff6000806101000a81548160ff021916908360ff1602179055507f7f26b83ff96e1f2b6a682f133852f6798a09c465da95921460cefb384740249860ff6040516200011a91906200017f565b60405180910390a15b565b6000620001346027836200019c565b91506200014182620001ba565b604082019050919050565b6200015781620001ad565b82525050565b60006020820190508181036000830152620001788162000125565b9050919050565b60006020820190506200019660008301846200014c565b92915050565b600082825260208201905092915050565b600060ff82169050919050565b7f496e697469616c697a61626c653a20636f6e747261637420697320696e69746960008201527f616c697a696e6700000000000000000000000000000000000000000000000000602082015250565b60805160601c61572d6200024460003960008181610921015281816109b001528181610cd001528181610d5f0152610e23015261572d6000f3fe6080604052600436106101805760003560e01c80635c975abb116100d1578063a22cb4651161008a578063df2dbabc11610064578063df2dbabc1461055a578063e985e9c514610597578063f242432a146105d4578063f2fde38b146105fd57610180565b8063a22cb465146104cb578063bd85b039146104f4578063db86ace01461053157610180565b80635c975abb146103e1578063715018a61461040c5780638456cb5914610423578063869f75941461043a5780638da5cb5b1461047757806390657147146104a257610180565b806337da577c1161013e5780634e1273f4116101185780634e1273f4146103205780634f1ef2861461035d5780634f558e791461037957806352d1902d146103b657610180565b806337da577c146102b75780633f4ba83a146102e0578063440de236146102f757610180565b8062fdd58e1461018557806301ffc9a7146101c257806302fe5305146101ff5780630e89341c146102285780632eb2c2d6146102655780633659cfe61461028e575b600080fd5b34801561019157600080fd5b506101ac60048036038101906101a79190613a9a565b610626565b6040516101b9919061493c565b60405180910390f35b3480156101ce57600080fd5b506101e960048036038101906101e49190613bba565b6106f0565b6040516101f6919061444c565b60405180910390f35b34801561020b57600080fd5b5061022660048036038101906102219190613c0c565b6107d2565b005b34801561023457600080fd5b5061024f600480360381019061024a9190613cb0565b6107e6565b60405161025c919061457a565b60405180910390f35b34801561027157600080fd5b5061028c6004803603810190610287919061383d565b61087a565b005b34801561029a57600080fd5b506102b560048036038101906102b091906137d8565b61091f565b005b3480156102c357600080fd5b506102de60048036038101906102d99190613cd9565b610ace565b005b3480156102ec57600080fd5b506102f5610af3565b005b34801561030357600080fd5b5061031e60048036038101906103199190613ad6565b610b05565b005b34801561032c57600080fd5b5061034760048036038101906103429190613b25565b610b1d565b60405161035491906143f3565b60405180910390f35b610377600480360381019061037291906139c7565b610cce565b005b34801561038557600080fd5b506103a0600480360381019061039b9190613cb0565b610e0b565b6040516103ad919061444c565b60405180910390f35b3480156103c257600080fd5b506103cb610e1f565b6040516103d89190614467565b60405180910390f35b3480156103ed57600080fd5b506103f6610ed8565b604051610403919061444c565b60405180910390f35b34801561041857600080fd5b50610421610eef565b005b34801561042f57600080fd5b50610438610f03565b005b34801561044657600080fd5b50610461600480360381019061045c9190613cb0565b610f15565b60405161046e919061493c565b60405180910390f35b34801561048357600080fd5b5061048c610f2e565b6040516104999190614316565b60405180910390f35b3480156104ae57600080fd5b506104c960048036038101906104c49190613a1b565b610f58565b005b3480156104d757600080fd5b506104f260048036038101906104ed919061398b565b611115565b005b34801561050057600080fd5b5061051b60048036038101906105169190613cb0565b61112b565b604051610528919061493c565b60405180910390f35b34801561053d57600080fd5b5061055860048036038101906105539190613c4d565b611148565b005b34801561056657600080fd5b50610581600480360381019061057c9190613c4d565b6112aa565b60405161058e919061444c565b60405180910390f35b3480156105a357600080fd5b506105be60048036038101906105b99190613801565b6113c9565b6040516105cb919061444c565b60405180910390f35b3480156105e057600080fd5b506105fb60048036038101906105f691906138fc565b61145d565b005b34801561060957600080fd5b50610624600480360381019061061f91906137d8565b611502565b005b60008073ffffffffffffffffffffffffffffffffffffffff168373ffffffffffffffffffffffffffffffffffffffff161415610697576040517f08c379a000000000000000000000000000000000000000000000000000000000815260040161068e9061467c565b60405180910390fd5b60c9600083815260200190815260200160002060008473ffffffffffffffffffffffffffffffffffffffff1673ffffffffffffffffffffffffffffffffffffffff16815260200190815260200160002054905092915050565b60007fd9b67a26000000000000000000000000000000000000000000000000000000007bffffffffffffffffffffffffffffffffffffffffffffffffffffffff1916827bffffffffffffffffffffffffffffffffffffffffffffffffffffffff191614806107bb57507f0e89341c000000000000000000000000000000000000000000000000000000007bffffffffffffffffffffffffffffffffffffffffffffffffffffffff1916827bffffffffffffffffffffffffffffffffffffffffffffffffffffffff1916145b806107cb57506107ca82611586565b5b9050919050565b6107da6115f0565b6107e38161166e565b50565b606060cb80546107f590614c1b565b80601f016020809104026020016040519081016040528092919081815260200182805461082190614c1b565b801561086e5780601f106108435761010080835404028352916020019161086e565b820191906000526020600020905b81548152906001019060200180831161085157829003601f168201915b50505050509050919050565b6101c560009054906101000a900473ffffffffffffffffffffffffffffffffffffffff1673ffffffffffffffffffffffffffffffffffffffff163373ffffffffffffffffffffffffffffffffffffffff161461090b576040517f08c379a00000000000000000000000000000000000000000000000000000000081526004016109029061481c565b60405180910390fd5b6109188585858585611688565b5050505050565b7f000000000000000000000000000000000000000000000000000000000000000073ffffffffffffffffffffffffffffffffffffffff163073ffffffffffffffffffffffffffffffffffffffff1614156109ae576040517f08c379a00000000000000000000000000000000000000000000000000000000081526004016109a59061465c565b60405180910390fd5b7f000000000000000000000000000000000000000000000000000000000000000073ffffffffffffffffffffffffffffffffffffffff166109ed6119f9565b73ffffffffffffffffffffffffffffffffffffffff1614610a43576040517f08c379a0000000000000000000000000000000000000000000000000000000008152600401610a3a906146bc565b60405180910390fd5b610a4c81611a50565b610acb81600067ffffffffffffffff811115610a91577f4e487b7100000000000000000000000000000000000000000000000000000000600052604160045260246000fd5b6040519080825280601f01601f191660200182016040528015610ac35781602001600182028036833780820191505090505b506000611a5b565b50565b610ad66115f0565b806101c76000848152602001908152602001600020819055505050565b610afb6115f0565b610b03611bd8565b565b610b0d6115f0565b610b18838383611c3b565b505050565b60608151835114610b63576040517f08c379a0000000000000000000000000000000000000000000000000000000008152600401610b5a906148dc565b60405180910390fd5b6000835167ffffffffffffffff811115610ba6577f4e487b7100000000000000000000000000000000000000000000000000000000600052604160045260246000fd5b604051908082528060200260200182016040528015610bd45781602001602082028036833780820191505090505b50905060005b8451811015610cc357610c6d858281518110610c1f577f4e487b7100000000000000000000000000000000000000000000000000000000600052603260045260246000fd5b6020026020010151858381518110610c60577f4e487b7100000000000000000000000000000000000000000000000000000000600052603260045260246000fd5b6020026020010151610626565b828281518110610ca6577f4e487b7100000000000000000000000000000000000000000000000000000000600052603260045260246000fd5b60200260200101818152505080610cbc90614c7e565b9050610bda565b508091505092915050565b7f000000000000000000000000000000000000000000000000000000000000000073ffffffffffffffffffffffffffffffffffffffff163073ffffffffffffffffffffffffffffffffffffffff161415610d5d576040517f08c379a0000000000000000000000000000000000000000000000000000000008152600401610d549061465c565b60405180910390fd5b7f000000000000000000000000000000000000000000000000000000000000000073ffffffffffffffffffffffffffffffffffffffff16610d9c6119f9565b73ffffffffffffffffffffffffffffffffffffffff1614610df2576040517f08c379a0000000000000000000000000000000000000000000000000000000008152600401610de9906146bc565b60405180910390fd5b610dfb82611a50565b610e0782826001611a5b565b5050565b600080610e178361112b565b119050919050565b60007f000000000000000000000000000000000000000000000000000000000000000073ffffffffffffffffffffffffffffffffffffffff163073ffffffffffffffffffffffffffffffffffffffff1614610eaf576040517f08c379a0000000000000000000000000000000000000000000000000000000008152600401610ea6906146dc565b60405180910390fd5b7f360894a13ba1a3210667c828492db98dca3e2076cc3735a920a3ca505d382bbc60001b905090565b6000606560009054906101000a900460ff16905090565b610ef76115f0565b610f016000611e84565b565b610f0b6115f0565b610f13611f4a565b565b6101c76020528060005260406000206000915090505481565b6000603360009054906101000a900473ffffffffffffffffffffffffffffffffffffffff16905090565b60008060019054906101000a900460ff16159050808015610f895750600160008054906101000a900460ff1660ff16105b80610fb65750610f9830611fad565b158015610fb55750600160008054906101000a900460ff1660ff16145b5b610ff5576040517f08c379a0000000000000000000000000000000000000000000000000000000008152600401610fec9061475c565b60405180910390fd5b60016000806101000a81548160ff021916908360ff1602179055508015611032576001600060016101000a81548160ff0219169083151502179055505b61104a60405180602001604052806000815250611fd0565b61105261202b565b61105a612084565b6110626120dd565b61106a61212e565b611074838361217f565b836101c560006101000a81548173ffffffffffffffffffffffffffffffffffffffff021916908373ffffffffffffffffffffffffffffffffffffffff160217905550801561110f5760008060016101000a81548160ff0219169083151502179055507f7f26b83ff96e1f2b6a682f133852f6798a09c465da95921460cefb38474024986001604051611106919061455f565b60405180910390a15b50505050565b6111276111206121dc565b83836121e4565b5050565b600060fb6000838152602001908152602001600020549050919050565b600084600001359050600085604001602081019061116691906137d8565b9050611174868686866112aa565b6111b3576040517f08c379a00000000000000000000000000000000000000000000000000000000081526004016111aa9061463c565b60405180910390fd5b6101c76000838152602001908152602001600020546111d18361112b565b10611211576040517f08c379a00000000000000000000000000000000000000000000000000000000081526004016112089061487c565b60405180910390fd5b600161121d3384610626565b1061125d576040517f08c379a00000000000000000000000000000000000000000000000000000000081526004016112549061469c565b60405180910390fd5b6112a2818388602001356040518060400160405280600281526020017f3078000000000000000000000000000000000000000000000000000000000000815250612351565b505050505050565b60008061131c7fb94296b09bceed437a6224c2dbde7338741b11d1e9ad2c96c0108cda37691d6b876000013588602001358960400160208101906112ee91906137d8565b60405160200161130194939291906144d5565b60405160208183030381529060405280519060200120612503565b90506101c560009054906101000a900473ffffffffffffffffffffffffffffffffffffffff1673ffffffffffffffffffffffffffffffffffffffff166001828588886040516000815260200160405260405161137b949392919061451a565b6020604051602081039080840390855afa15801561139d573d6000803e3d6000fd5b5050506020604051035173ffffffffffffffffffffffffffffffffffffffff1614915050949350505050565b600060ca60008473ffffffffffffffffffffffffffffffffffffffff1673ffffffffffffffffffffffffffffffffffffffff16815260200190815260200160002060008373ffffffffffffffffffffffffffffffffffffffff1673ffffffffffffffffffffffffffffffffffffffff16815260200190815260200160002060009054906101000a900460ff16905092915050565b6101c560009054906101000a900473ffffffffffffffffffffffffffffffffffffffff1673ffffffffffffffffffffffffffffffffffffffff163373ffffffffffffffffffffffffffffffffffffffff16146114ee576040517f08c379a00000000000000000000000000000000000000000000000000000000081526004016114e59061481c565b60405180910390fd5b6114fb858585858561251d565b5050505050565b61150a6115f0565b600073ffffffffffffffffffffffffffffffffffffffff168173ffffffffffffffffffffffffffffffffffffffff16141561157a576040517f08c379a0000000000000000000000000000000000000000000000000000000008152600401611571906145fc565b60405180910390fd5b61158381611e84565b50565b60007f01ffc9a7000000000000000000000000000000000000000000000000000000007bffffffffffffffffffffffffffffffffffffffffffffffffffffffff1916827bffffffffffffffffffffffffffffffffffffffffffffffffffffffff1916149050919050565b6115f86121dc565b73ffffffffffffffffffffffffffffffffffffffff16611616610f2e565b73ffffffffffffffffffffffffffffffffffffffff161461166c576040517f08c379a0000000000000000000000000000000000000000000000000000000008152600401611663906147fc565b60405180910390fd5b565b8060cb9080519060200190611684929190613476565b5050565b81518351146116cc576040517f08c379a00000000000000000000000000000000000000000000000000000000081526004016116c3906148fc565b60405180910390fd5b600073ffffffffffffffffffffffffffffffffffffffff168473ffffffffffffffffffffffffffffffffffffffff16141561173c576040517f08c379a00000000000000000000000000000000000000000000000000000000081526004016117339061471c565b60405180910390fd5b60006117466121dc565b90506117568187878787876127bc565b60005b845181101561195657600085828151811061179d577f4e487b7100000000000000000000000000000000000000000000000000000000600052603260045260246000fd5b6020026020010151905060008583815181106117e2577f4e487b7100000000000000000000000000000000000000000000000000000000600052603260045260246000fd5b60200260200101519050600060c9600084815260200190815260200160002060008b73ffffffffffffffffffffffffffffffffffffffff1673ffffffffffffffffffffffffffffffffffffffff16815260200190815260200160002054905081811015611884576040517f08c379a000000000000000000000000000000000000000000000000000000000815260040161187b9061479c565b60405180910390fd5b81810360c9600085815260200190815260200160002060008c73ffffffffffffffffffffffffffffffffffffffff1673ffffffffffffffffffffffffffffffffffffffff168152602001908152602001600020819055508160c9600085815260200190815260200160002060008b73ffffffffffffffffffffffffffffffffffffffff1673ffffffffffffffffffffffffffffffffffffffff168152602001908152602001600020600082825461193b9190614ae6565b925050819055505050508061194f90614c7e565b9050611759565b508473ffffffffffffffffffffffffffffffffffffffff168673ffffffffffffffffffffffffffffffffffffffff168273ffffffffffffffffffffffffffffffffffffffff167f4a39dc06d4c0dbc64b70af90fd698a233a518aa5d07e595d983b8c0526c8f7fb87876040516119cd929190614415565b60405180910390a46119e38187878787876127da565b6119f18187878787876127e2565b505050505050565b6000611a277f360894a13ba1a3210667c828492db98dca3e2076cc3735a920a3ca505d382bbc60001b6129c9565b60000160009054906101000a900473ffffffffffffffffffffffffffffffffffffffff16905090565b611a586115f0565b50565b611a877f4910fdfa16fed3260ed0e7147f7cc6da11a60208b5b9406d12a635614ffd914360001b6129d3565b60000160009054906101000a900460ff1615611aab57611aa6836129dd565b611bd3565b8273ffffffffffffffffffffffffffffffffffffffff166352d1902d6040518163ffffffff1660e01b815260040160206040518083038186803b158015611af157600080fd5b505afa925050508015611b2257506040513d601f19601f82011682018060405250810190611b1f9190613b91565b60015b611b61576040517f08c379a0000000000000000000000000000000000000000000000000000000008152600401611b58906147bc565b60405180910390fd5b7f360894a13ba1a3210667c828492db98dca3e2076cc3735a920a3ca505d382bbc60001b8114611bc6576040517f08c379a0000000000000000000000000000000000000000000000000000000008152600401611bbd9061473c565b60405180910390fd5b50611bd2838383612a96565b5b505050565b611be0612ac2565b6000606560006101000a81548160ff0219169083151502179055507f5db9ee0a495bf2e6ff9c91a7834c1ba4fdd244a5e8aa4e537bd38aeae4b073aa611c246121dc565b604051611c319190614316565b60405180910390a1565b600073ffffffffffffffffffffffffffffffffffffffff168373ffffffffffffffffffffffffffffffffffffffff161415611cab576040517f08c379a0000000000000000000000000000000000000000000000000000000008152600401611ca29061477c565b60405180910390fd5b6000611cb56121dc565b90506000611cc284612b0b565b90506000611ccf84612b0b565b9050611cef838760008585604051806020016040528060008152506127bc565b600060c9600087815260200190815260200160002060008873ffffffffffffffffffffffffffffffffffffffff1673ffffffffffffffffffffffffffffffffffffffff16815260200190815260200160002054905084811015611d87576040517f08c379a0000000000000000000000000000000000000000000000000000000008152600401611d7e9061461c565b60405180910390fd5b84810360c9600088815260200190815260200160002060008973ffffffffffffffffffffffffffffffffffffffff1673ffffffffffffffffffffffffffffffffffffffff16815260200190815260200160002081905550600073ffffffffffffffffffffffffffffffffffffffff168773ffffffffffffffffffffffffffffffffffffffff168573ffffffffffffffffffffffffffffffffffffffff167fc3d58168c5ae7397731d063d5bbf3d657854427343f4c083240f7aacaa2d0f628989604051611e55929190614957565b60405180910390a4611e7b848860008686604051806020016040528060008152506127da565b50505050505050565b6000603360009054906101000a900473ffffffffffffffffffffffffffffffffffffffff16905081603360006101000a81548173ffffffffffffffffffffffffffffffffffffffff021916908373ffffffffffffffffffffffffffffffffffffffff1602179055508173ffffffffffffffffffffffffffffffffffffffff168173ffffffffffffffffffffffffffffffffffffffff167f8be0079c531659141344cd1fd0a4f28419497f9722a3daafe3b4186f6b6457e060405160405180910390a35050565b611f52612bd1565b6001606560006101000a81548160ff0219169083151502179055507f62e78cea01bee320cd4e420270b5ea74000d11b0c9f74754ebdbfc544b05a258611f966121dc565b604051611fa39190614316565b60405180910390a1565b6000808273ffffffffffffffffffffffffffffffffffffffff163b119050919050565b600060019054906101000a900460ff1661201f576040517f08c379a00000000000000000000000000000000000000000000000000000000081526004016120169061489c565b60405180910390fd5b61202881612c1b565b50565b600060019054906101000a900460ff1661207a576040517f08c379a00000000000000000000000000000000000000000000000000000000081526004016120719061489c565b60405180910390fd5b612082612c76565b565b600060019054906101000a900460ff166120d3576040517f08c379a00000000000000000000000000000000000000000000000000000000081526004016120ca9061489c565b60405180910390fd5b6120db612cd7565b565b600060019054906101000a900460ff1661212c576040517f08c379a00000000000000000000000000000000000000000000000000000000081526004016121239061489c565b60405180910390fd5b565b600060019054906101000a900460ff1661217d576040517f08c379a00000000000000000000000000000000000000000000000000000000081526004016121749061489c565b60405180910390fd5b565b600060019054906101000a900460ff166121ce576040517f08c379a00000000000000000000000000000000000000000000000000000000081526004016121c59061489c565b60405180910390fd5b6121d88282612d43565b5050565b600033905090565b8173ffffffffffffffffffffffffffffffffffffffff168373ffffffffffffffffffffffffffffffffffffffff161415612253576040517f08c379a000000000000000000000000000000000000000000000000000000000815260040161224a906148bc565b60405180910390fd5b8060ca60008573ffffffffffffffffffffffffffffffffffffffff1673ffffffffffffffffffffffffffffffffffffffff16815260200190815260200160002060008473ffffffffffffffffffffffffffffffffffffffff1673ffffffffffffffffffffffffffffffffffffffff16815260200190815260200160002060006101000a81548160ff0219169083151502179055508173ffffffffffffffffffffffffffffffffffffffff168373ffffffffffffffffffffffffffffffffffffffff167f17307eab39ab6107e8899845ad3d59bd9653f200f220920489ca2b5937696c3183604051612344919061444c565b60405180910390a3505050565b600073ffffffffffffffffffffffffffffffffffffffff168473ffffffffffffffffffffffffffffffffffffffff1614156123c1576040517f08c379a00000000000000000000000000000000000000000000000000000000081526004016123b89061491c565b60405180910390fd5b60006123cb6121dc565b905060006123d885612b0b565b905060006123e585612b0b565b90506123f6836000898585896127bc565b8460c9600088815260200190815260200160002060008973ffffffffffffffffffffffffffffffffffffffff1673ffffffffffffffffffffffffffffffffffffffff16815260200190815260200160002060008282546124569190614ae6565b925050819055508673ffffffffffffffffffffffffffffffffffffffff16600073ffffffffffffffffffffffffffffffffffffffff168473ffffffffffffffffffffffffffffffffffffffff167fc3d58168c5ae7397731d063d5bbf3d657854427343f4c083240f7aacaa2d0f6289896040516124d4929190614957565b60405180910390a46124eb836000898585896127da565b6124fa83600089898989612dc0565b50505050505050565b6000612516612510612fa7565b83612fe7565b9050919050565b600073ffffffffffffffffffffffffffffffffffffffff168473ffffffffffffffffffffffffffffffffffffffff16141561258d576040517f08c379a00000000000000000000000000000000000000000000000000000000081526004016125849061471c565b60405180910390fd5b60006125976121dc565b905060006125a485612b0b565b905060006125b185612b0b565b90506125c18389898585896127bc565b600060c9600088815260200190815260200160002060008a73ffffffffffffffffffffffffffffffffffffffff1673ffffffffffffffffffffffffffffffffffffffff16815260200190815260200160002054905085811015612659576040517f08c379a00000000000000000000000000000000000000000000000000000000081526004016126509061479c565b60405180910390fd5b85810360c9600089815260200190815260200160002060008b73ffffffffffffffffffffffffffffffffffffffff1673ffffffffffffffffffffffffffffffffffffffff168152602001908152602001600020819055508560c9600089815260200190815260200160002060008a73ffffffffffffffffffffffffffffffffffffffff1673ffffffffffffffffffffffffffffffffffffffff16815260200190815260200160002060008282546127109190614ae6565b925050819055508773ffffffffffffffffffffffffffffffffffffffff168973ffffffffffffffffffffffffffffffffffffffff168573ffffffffffffffffffffffffffffffffffffffff167fc3d58168c5ae7397731d063d5bbf3d657854427343f4c083240f7aacaa2d0f628a8a60405161278d929190614957565b60405180910390a46127a3848a8a86868a6127da565b6127b1848a8a8a8a8a612dc0565b505050505050505050565b6127c4612bd1565b6127d286868686868661301a565b505050505050565b505050505050565b6128018473ffffffffffffffffffffffffffffffffffffffff16611fad565b156129c1578373ffffffffffffffffffffffffffffffffffffffff1663bc197c8187878686866040518663ffffffff1660e01b8152600401612847959493929190614331565b602060405180830381600087803b15801561286157600080fd5b505af192505050801561289257506040513d601f19601f8201168201806040525081019061288f9190613be3565b60015b6129385761289e614d5e565b806308c379a014156128fb57506128b36155b0565b806128be57506128fd565b806040517f08c379a00000000000000000000000000000000000000000000000000000000081526004016128f2919061457a565b60405180910390fd5b505b6040517f08c379a000000000000000000000000000000000000000000000000000000000815260040161292f9061459c565b60405180910390fd5b63bc197c8160e01b7bffffffffffffffffffffffffffffffffffffffffffffffffffffffff1916817bffffffffffffffffffffffffffffffffffffffffffffffffffffffff1916146129bf576040517f08c379a00000000000000000000000000000000000000000000000000000000081526004016129b6906145bc565b60405180910390fd5b505b505050505050565b6000819050919050565b6000819050919050565b6129e681611fad565b612a25576040517f08c379a0000000000000000000000000000000000000000000000000000000008152600401612a1c906147dc565b60405180910390fd5b80612a527f360894a13ba1a3210667c828492db98dca3e2076cc3735a920a3ca505d382bbc60001b6129c9565b60000160006101000a81548173ffffffffffffffffffffffffffffffffffffffff021916908373ffffffffffffffffffffffffffffffffffffffff16021790555050565b612a9f83613284565b600082511180612aac5750805b15612abd57612abb83836132d3565b505b505050565b612aca610ed8565b612b09576040517f08c379a0000000000000000000000000000000000000000000000000000000008152600401612b00906145dc565b60405180910390fd5b565b60606000600167ffffffffffffffff811115612b50577f4e487b7100000000000000000000000000000000000000000000000000000000600052604160045260246000fd5b604051908082528060200260200182016040528015612b7e5781602001602082028036833780820191505090505b5090508281600081518110612bbc577f4e487b7100000000000000000000000000000000000000000000000000000000600052603260045260246000fd5b60200260200101818152505080915050919050565b612bd9610ed8565b15612c19576040517f08c379a0000000000000000000000000000000000000000000000000000000008152600401612c10906146fc565b60405180910390fd5b565b600060019054906101000a900460ff16612c6a576040517f08c379a0000000000000000000000000000000000000000000000000000000008152600401612c619061489c565b60405180910390fd5b612c738161166e565b50565b600060019054906101000a900460ff16612cc5576040517f08c379a0000000000000000000000000000000000000000000000000000000008152600401612cbc9061489c565b60405180910390fd5b612cd5612cd06121dc565b611e84565b565b600060019054906101000a900460ff16612d26576040517f08c379a0000000000000000000000000000000000000000000000000000000008152600401612d1d9061489c565b60405180910390fd5b6000606560006101000a81548160ff021916908315150217905550565b600060019054906101000a900460ff16612d92576040517f08c379a0000000000000000000000000000000000000000000000000000000008152600401612d899061489c565b60405180910390fd5b6000828051906020012090506000828051906020012090508161019181905550806101928190555050505050565b612ddf8473ffffffffffffffffffffffffffffffffffffffff16611fad565b15612f9f578373ffffffffffffffffffffffffffffffffffffffff1663f23a6e6187878686866040518663ffffffff1660e01b8152600401612e25959493929190614399565b602060405180830381600087803b158015612e3f57600080fd5b505af1925050508015612e7057506040513d601f19601f82011682018060405250810190612e6d9190613be3565b60015b612f1657612e7c614d5e565b806308c379a01415612ed95750612e916155b0565b80612e9c5750612edb565b806040517f08c379a0000000000000000000000000000000000000000000000000000000008152600401612ed0919061457a565b60405180910390fd5b505b6040517f08c379a0000000000000000000000000000000000000000000000000000000008152600401612f0d9061459c565b60405180910390fd5b63f23a6e6160e01b7bffffffffffffffffffffffffffffffffffffffffffffffffffffffff1916817bffffffffffffffffffffffffffffffffffffffffffffffffffffffff191614612f9d576040517f08c379a0000000000000000000000000000000000000000000000000000000008152600401612f94906145bc565b60405180910390fd5b505b505050505050565b6000612fe27f8b73c3c69bb8fe3d512ecc4cf759cc79239f7b179b0ffacaa9a75d522b39400f612fd56133b7565b612fdd6133c2565b6133cd565b905090565b60008282604051602001612ffc9291906142df565b60405160208183030381529060405280519060200120905092915050565b613028868686868686613407565b600073ffffffffffffffffffffffffffffffffffffffff168573ffffffffffffffffffffffffffffffffffffffff1614156131265760005b8351811015613124578281815181106130a2577f4e487b7100000000000000000000000000000000000000000000000000000000600052603260045260246000fd5b602002602001015160fb60008684815181106130e7577f4e487b7100000000000000000000000000000000000000000000000000000000600052603260045260246000fd5b60200260200101518152602001908152602001600020600082825461310c9190614ae6565b925050819055508061311d90614c7e565b9050613060565b505b600073ffffffffffffffffffffffffffffffffffffffff168473ffffffffffffffffffffffffffffffffffffffff16141561327c5760005b835181101561327a5760008482815181106131a2577f4e487b7100000000000000000000000000000000000000000000000000000000600052603260045260246000fd5b6020026020010151905060008483815181106131e7577f4e487b7100000000000000000000000000000000000000000000000000000000600052603260045260246000fd5b60200260200101519050600060fb60008481526020019081526020016000205490508181101561324c576040517f08c379a00000000000000000000000000000000000000000000000000000000081526004016132439061483c565b60405180910390fd5b81810360fb6000858152602001908152602001600020819055505050508061327390614c7e565b905061315e565b505b505050505050565b61328d816129dd565b8073ffffffffffffffffffffffffffffffffffffffff167fbc7cd75a20ee27fd9adebab32041f755214dbc6bffa90cc0225b39da2e5c2d3b60405160405180910390a250565b60606132de83611fad565b61331d576040517f08c379a00000000000000000000000000000000000000000000000000000000081526004016133149061485c565b60405180910390fd5b6000808473ffffffffffffffffffffffffffffffffffffffff168460405161334591906142c8565b600060405180830381855af49150503d8060008114613380576040519150601f19603f3d011682016040523d82523d6000602084013e613385565b606091505b50915091506133ad82826040518060600160405280602781526020016156d16027913961340f565b9250505092915050565b600061019154905090565b600061019254905090565b600083838346306040516020016133e8959493929190614482565b6040516020818303038152906040528051906020012090509392505050565b505050505050565b6060831561341f5782905061346f565b6000835111156134325782518084602001fd5b816040517f08c379a0000000000000000000000000000000000000000000000000000000008152600401613466919061457a565b60405180910390fd5b9392505050565b82805461348290614c1b565b90600052602060002090601f0160209004810192826134a457600085556134eb565b82601f106134bd57805160ff19168380011785556134eb565b828001600101855582156134eb579182015b828111156134ea5782518255916020019190600101906134cf565b5b5090506134f891906134fc565b5090565b5b808211156135155760008160009055506001016134fd565b5090565b600061352c613527846149a5565b614980565b9050808382526020820190508285602086028201111561354b57600080fd5b60005b8581101561357b5781613561888261366d565b84526020840193506020830192505060018101905061354e565b5050509392505050565b6000613598613593846149d1565b614980565b905080838252602082019050828560208602820111156135b757600080fd5b60005b858110156135e757816135cd88826137ae565b8452602084019350602083019250506001810190506135ba565b5050509392505050565b60006136046135ff846149fd565b614980565b90508281526020810184848401111561361c57600080fd5b613627848285614bd9565b509392505050565b600061364261363d84614a2e565b614980565b90508281526020810184848401111561365a57600080fd5b613665848285614bd9565b509392505050565b60008135905061367c81615646565b92915050565b600082601f83011261369357600080fd5b81356136a3848260208601613519565b91505092915050565b600082601f8301126136bd57600080fd5b81356136cd848260208601613585565b91505092915050565b6000813590506136e58161565d565b92915050565b6000813590506136fa81615674565b92915050565b60008151905061370f81615674565b92915050565b6000813590506137248161568b565b92915050565b6000815190506137398161568b565b92915050565b600082601f83011261375057600080fd5b81356137608482602086016135f1565b91505092915050565b600082601f83011261377a57600080fd5b813561378a84826020860161362f565b91505092915050565b6000606082840312156137a557600080fd5b81905092915050565b6000813590506137bd816156a2565b92915050565b6000813590506137d2816156b9565b92915050565b6000602082840312156137ea57600080fd5b60006137f88482850161366d565b91505092915050565b6000806040838503121561381457600080fd5b60006138228582860161366d565b92505060206138338582860161366d565b9150509250929050565b600080600080600060a0868803121561385557600080fd5b60006138638882890161366d565b95505060206138748882890161366d565b945050604086013567ffffffffffffffff81111561389157600080fd5b61389d888289016136ac565b935050606086013567ffffffffffffffff8111156138ba57600080fd5b6138c6888289016136ac565b925050608086013567ffffffffffffffff8111156138e357600080fd5b6138ef8882890161373f565b9150509295509295909350565b600080600080600060a0868803121561391457600080fd5b60006139228882890161366d565b95505060206139338882890161366d565b9450506040613944888289016137ae565b9350506060613955888289016137ae565b925050608086013567ffffffffffffffff81111561397257600080fd5b61397e8882890161373f565b9150509295509295909350565b6000806040838503121561399e57600080fd5b60006139ac8582860161366d565b92505060206139bd858286016136d6565b9150509250929050565b600080604083850312156139da57600080fd5b60006139e88582860161366d565b925050602083013567ffffffffffffffff811115613a0557600080fd5b613a118582860161373f565b9150509250929050565b600080600060608486031215613a3057600080fd5b6000613a3e8682870161366d565b935050602084013567ffffffffffffffff811115613a5b57600080fd5b613a6786828701613769565b925050604084013567ffffffffffffffff811115613a8457600080fd5b613a9086828701613769565b9150509250925092565b60008060408385031215613aad57600080fd5b6000613abb8582860161366d565b9250506020613acc858286016137ae565b9150509250929050565b600080600060608486031215613aeb57600080fd5b6000613af98682870161366d565b9350506020613b0a868287016137ae565b9250506040613b1b868287016137ae565b9150509250925092565b60008060408385031215613b3857600080fd5b600083013567ffffffffffffffff811115613b5257600080fd5b613b5e85828601613682565b925050602083013567ffffffffffffffff811115613b7b57600080fd5b613b87858286016136ac565b9150509250929050565b600060208284031215613ba357600080fd5b6000613bb184828501613700565b91505092915050565b600060208284031215613bcc57600080fd5b6000613bda84828501613715565b91505092915050565b600060208284031215613bf557600080fd5b6000613c038482850161372a565b91505092915050565b600060208284031215613c1e57600080fd5b600082013567ffffffffffffffff811115613c3857600080fd5b613c4484828501613769565b91505092915050565b60008060008060c08587031215613c6357600080fd5b6000613c7187828801613793565b9450506060613c82878288016136eb565b9350506080613c93878288016136eb565b92505060a0613ca4878288016137c3565b91505092959194509250565b600060208284031215613cc257600080fd5b6000613cd0848285016137ae565b91505092915050565b60008060408385031215613cec57600080fd5b6000613cfa858286016137ae565b9250506020613d0b858286016137ae565b9150509250929050565b6000613d21838361429b565b60208301905092915050565b613d3681614b3c565b82525050565b6000613d4782614a6f565b613d518185614a9d565b9350613d5c83614a5f565b8060005b83811015613d8d578151613d748882613d15565b9750613d7f83614a90565b925050600181019050613d60565b5085935050505092915050565b613da381614b4e565b82525050565b613db281614b5a565b82525050565b613dc9613dc482614b5a565b614cc7565b82525050565b6000613dda82614a7a565b613de48185614aae565b9350613df4818560208601614be8565b613dfd81614d80565b840191505092915050565b6000613e1382614a7a565b613e1d8185614abf565b9350613e2d818560208601614be8565b80840191505092915050565b613e4281614bc7565b82525050565b6000613e5382614a85565b613e5d8185614aca565b9350613e6d818560208601614be8565b613e7681614d80565b840191505092915050565b6000613e8e603483614aca565b9150613e9982614d9e565b604082019050919050565b6000613eb1602883614aca565b9150613ebc82614ded565b604082019050919050565b6000613ed4601483614aca565b9150613edf82614e3c565b602082019050919050565b6000613ef7602683614aca565b9150613f0282614e65565b604082019050919050565b6000613f1a602483614aca565b9150613f2582614eb4565b604082019050919050565b6000613f3d600283614adb565b9150613f4882614f03565b600282019050919050565b6000613f60600b83614aca565b9150613f6b82614f2c565b602082019050919050565b6000613f83602c83614aca565b9150613f8e82614f55565b604082019050919050565b6000613fa6602a83614aca565b9150613fb182614fa4565b604082019050919050565b6000613fc9600a83614aca565b9150613fd482614ff3565b602082019050919050565b6000613fec602c83614aca565b9150613ff78261501c565b604082019050919050565b600061400f603883614aca565b915061401a8261506b565b604082019050919050565b6000614032601083614aca565b915061403d826150ba565b602082019050919050565b6000614055602583614aca565b9150614060826150e3565b604082019050919050565b6000614078602983614aca565b915061408382615132565b604082019050919050565b600061409b602e83614aca565b91506140a682615181565b604082019050919050565b60006140be602383614aca565b91506140c9826151d0565b604082019050919050565b60006140e1602a83614aca565b91506140ec8261521f565b604082019050919050565b6000614104602e83614aca565b915061410f8261526e565b604082019050919050565b6000614127602d83614aca565b9150614132826152bd565b604082019050919050565b600061414a602083614aca565b91506141558261530c565b602082019050919050565b600061416d600983614aca565b915061417882615335565b602082019050919050565b6000614190602883614aca565b915061419b8261535e565b604082019050919050565b60006141b3602683614aca565b91506141be826153ad565b604082019050919050565b60006141d6600f83614aca565b91506141e1826153fc565b602082019050919050565b60006141f9602b83614aca565b915061420482615425565b604082019050919050565b600061421c602983614aca565b915061422782615474565b604082019050919050565b600061423f602983614aca565b915061424a826154c3565b604082019050919050565b6000614262602883614aca565b915061426d82615512565b604082019050919050565b6000614285602183614aca565b915061429082615561565b604082019050919050565b6142a481614bb0565b82525050565b6142b381614bb0565b82525050565b6142c281614bba565b82525050565b60006142d48284613e08565b915081905092915050565b60006142ea82613f30565b91506142f68285613db8565b6020820191506143068284613db8565b6020820191508190509392505050565b600060208201905061432b6000830184613d2d565b92915050565b600060a0820190506143466000830188613d2d565b6143536020830187613d2d565b81810360408301526143658186613d3c565b905081810360608301526143798185613d3c565b9050818103608083015261438d8184613dcf565b90509695505050505050565b600060a0820190506143ae6000830188613d2d565b6143bb6020830187613d2d565b6143c860408301866142aa565b6143d560608301856142aa565b81810360808301526143e78184613dcf565b90509695505050505050565b6000602082019050818103600083015261440d8184613d3c565b905092915050565b6000604082019050818103600083015261442f8185613d3c565b905081810360208301526144438184613d3c565b90509392505050565b60006020820190506144616000830184613d9a565b92915050565b600060208201905061447c6000830184613da9565b92915050565b600060a0820190506144976000830188613da9565b6144a46020830187613da9565b6144b16040830186613da9565b6144be60608301856142aa565b6144cb6080830184613d2d565b9695505050505050565b60006080820190506144ea6000830187613da9565b6144f760208301866142aa565b61450460408301856142aa565b6145116060830184613d2d565b95945050505050565b600060808201905061452f6000830187613da9565b61453c60208301866142b9565b6145496040830185613da9565b6145566060830184613da9565b95945050505050565b60006020820190506145746000830184613e39565b92915050565b600060208201905081810360008301526145948184613e48565b905092915050565b600060208201905081810360008301526145b581613e81565b9050919050565b600060208201905081810360008301526145d581613ea4565b9050919050565b600060208201905081810360008301526145f581613ec7565b9050919050565b6000602082019050818103600083015261461581613eea565b9050919050565b6000602082019050818103600083015261463581613f0d565b9050919050565b6000602082019050818103600083015261465581613f53565b9050919050565b6000602082019050818103600083015261467581613f76565b9050919050565b6000602082019050818103600083015261469581613f99565b9050919050565b600060208201905081810360008301526146b581613fbc565b9050919050565b600060208201905081810360008301526146d581613fdf565b9050919050565b600060208201905081810360008301526146f581614002565b9050919050565b6000602082019050818103600083015261471581614025565b9050919050565b6000602082019050818103600083015261473581614048565b9050919050565b600060208201905081810360008301526147558161406b565b9050919050565b600060208201905081810360008301526147758161408e565b9050919050565b60006020820190508181036000830152614795816140b1565b9050919050565b600060208201905081810360008301526147b5816140d4565b9050919050565b600060208201905081810360008301526147d5816140f7565b9050919050565b600060208201905081810360008301526147f58161411a565b9050919050565b600060208201905081810360008301526148158161413d565b9050919050565b6000602082019050818103600083015261483581614160565b9050919050565b6000602082019050818103600083015261485581614183565b9050919050565b60006020820190508181036000830152614875816141a6565b9050919050565b60006020820190508181036000830152614895816141c9565b9050919050565b600060208201905081810360008301526148b5816141ec565b9050919050565b600060208201905081810360008301526148d58161420f565b9050919050565b600060208201905081810360008301526148f581614232565b9050919050565b6000602082019050818103600083015261491581614255565b9050919050565b6000602082019050818103600083015261493581614278565b9050919050565b600060208201905061495160008301846142aa565b92915050565b600060408201905061496c60008301856142aa565b61497960208301846142aa565b9392505050565b600061498a61499b565b90506149968282614c4d565b919050565b6000604051905090565b600067ffffffffffffffff8211156149c0576149bf614d2f565b5b602082029050602081019050919050565b600067ffffffffffffffff8211156149ec576149eb614d2f565b5b602082029050602081019050919050565b600067ffffffffffffffff821115614a1857614a17614d2f565b5b614a2182614d80565b9050602081019050919050565b600067ffffffffffffffff821115614a4957614a48614d2f565b5b614a5282614d80565b9050602081019050919050565b6000819050602082019050919050565b600081519050919050565b600081519050919050565b600081519050919050565b6000602082019050919050565b600082825260208201905092915050565b600082825260208201905092915050565b600081905092915050565b600082825260208201905092915050565b600081905092915050565b6000614af182614bb0565b9150614afc83614bb0565b9250827fffffffffffffffffffffffffffffffffffffffffffffffffffffffffffffffff03821115614b3157614b30614cd1565b5b828201905092915050565b6000614b4782614b90565b9050919050565b60008115159050919050565b6000819050919050565b60007fffffffff0000000000000000000000000000000000000000000000000000000082169050919050565b600073ffffffffffffffffffffffffffffffffffffffff82169050919050565b6000819050919050565b600060ff82169050919050565b6000614bd282614bba565b9050919050565b82818337600083830152505050565b60005b83811015614c06578082015181840152602081019050614beb565b83811115614c15576000848401525b50505050565b60006002820490506001821680614c3357607f821691505b60208210811415614c4757614c46614d00565b5b50919050565b614c5682614d80565b810181811067ffffffffffffffff82111715614c7557614c74614d2f565b5b80604052505050565b6000614c8982614bb0565b91507fffffffffffffffffffffffffffffffffffffffffffffffffffffffffffffffff821415614cbc57614cbb614cd1565b5b600182019050919050565b6000819050919050565b7f4e487b7100000000000000000000000000000000000000000000000000000000600052601160045260246000fd5b7f4e487b7100000000000000000000000000000000000000000000000000000000600052602260045260246000fd5b7f4e487b7100000000000000000000000000000000000000000000000000000000600052604160045260246000fd5b600060033d1115614d7d5760046000803e614d7a600051614d91565b90505b90565b6000601f19601f8301169050919050565b60008160e01c9050919050565b7f455243313135353a207472616e7366657220746f206e6f6e204552433131353560008201527f526563656976657220696d706c656d656e746572000000000000000000000000602082015250565b7f455243313135353a204552433131353552656365697665722072656a6563746560008201527f6420746f6b656e73000000000000000000000000000000000000000000000000602082015250565b7f5061757361626c653a206e6f7420706175736564000000000000000000000000600082015250565b7f4f776e61626c653a206e6577206f776e657220697320746865207a65726f206160008201527f6464726573730000000000000000000000000000000000000000000000000000602082015250565b7f455243313135353a206275726e20616d6f756e7420657863656564732062616c60008201527f616e636500000000000000000000000000000000000000000000000000000000602082015250565b7f1901000000000000000000000000000000000000000000000000000000000000600082015250565b7f496e76616c696420736967000000000000000000000000000000000000000000600082015250565b7f46756e6374696f6e206d7573742062652063616c6c6564207468726f7567682060008201527f64656c656761746563616c6c0000000000000000000000000000000000000000602082015250565b7f455243313135353a2061646472657373207a65726f206973206e6f742061207660008201527f616c6964206f776e657200000000000000000000000000000000000000000000602082015250565b7f6e6f207265706561747300000000000000000000000000000000000000000000600082015250565b7f46756e6374696f6e206d7573742062652063616c6c6564207468726f7567682060008201527f6163746976652070726f78790000000000000000000000000000000000000000602082015250565b7f555550535570677261646561626c653a206d757374206e6f742062652063616c60008201527f6c6564207468726f7567682064656c656761746563616c6c0000000000000000602082015250565b7f5061757361626c653a2070617573656400000000000000000000000000000000600082015250565b7f455243313135353a207472616e7366657220746f20746865207a65726f20616460008201527f6472657373000000000000000000000000000000000000000000000000000000602082015250565b7f45524331393637557067726164653a20756e737570706f727465642070726f7860008201527f6961626c65555549440000000000000000000000000000000000000000000000602082015250565b7f496e697469616c697a61626c653a20636f6e747261637420697320616c72656160008201527f647920696e697469616c697a6564000000000000000000000000000000000000602082015250565b7f455243313135353a206275726e2066726f6d20746865207a65726f206164647260008201527f6573730000000000000000000000000000000000000000000000000000000000602082015250565b7f455243313135353a20696e73756666696369656e742062616c616e636520666f60008201527f72207472616e7366657200000000000000000000000000000000000000000000602082015250565b7f45524331393637557067726164653a206e657720696d706c656d656e7461746960008201527f6f6e206973206e6f742055555053000000000000000000000000000000000000602082015250565b7f455243313936373a206e657720696d706c656d656e746174696f6e206973206e60008201527f6f74206120636f6e747261637400000000000000000000000000000000000000602082015250565b7f4f776e61626c653a2063616c6c6572206973206e6f7420746865206f776e6572600082015250565b7f736f756c626f756e640000000000000000000000000000000000000000000000600082015250565b7f455243313135353a206275726e20616d6f756e74206578636565647320746f7460008201527f616c537570706c79000000000000000000000000000000000000000000000000602082015250565b7f416464726573733a2064656c65676174652063616c6c20746f206e6f6e2d636f60008201527f6e74726163740000000000000000000000000000000000000000000000000000602082015250565b7f537570706c79206465706c657465640000000000000000000000000000000000600082015250565b7f496e697469616c697a61626c653a20636f6e7472616374206973206e6f74206960008201527f6e697469616c697a696e67000000000000000000000000000000000000000000602082015250565b7f455243313135353a2073657474696e6720617070726f76616c2073746174757360008201527f20666f722073656c660000000000000000000000000000000000000000000000602082015250565b7f455243313135353a206163636f756e747320616e6420696473206c656e67746860008201527f206d69736d617463680000000000000000000000000000000000000000000000602082015250565b7f455243313135353a2069647320616e6420616d6f756e7473206c656e6774682060008201527f6d69736d61746368000000000000000000000000000000000000000000000000602082015250565b7f455243313135353a206d696e7420746f20746865207a65726f2061646472657360008201527f7300000000000000000000000000000000000000000000000000000000000000602082015250565b600060443d10156155c057615643565b6155c861499b565b60043d036004823e80513d602482011167ffffffffffffffff821117156155f0575050615643565b808201805167ffffffffffffffff81111561560e5750505050615643565b80602083010160043d03850181111561562b575050505050615643565b61563a82602001850186614c4d565b82955050505050505b90565b61564f81614b3c565b811461565a57600080fd5b50565b61566681614b4e565b811461567157600080fd5b50565b61567d81614b5a565b811461568857600080fd5b50565b61569481614b64565b811461569f57600080fd5b50565b6156ab81614bb0565b81146156b657600080fd5b50565b6156c281614bba565b81146156cd57600080fd5b5056fe416464726573733a206c6f772d6c6576656c2064656c65676174652063616c6c206661696c6564a2646970667358221220078a3bc2398fd6d98cbabc21562d193cac3286097410814fc6fa0b57c0c37a9564736f6c63430008040033",
  "linkReferences": {},
  "deployedLinkReferences": {}
}